:100000000C9471000C9437070C940F070C94990012
:100010000C9499000C9499000C9499000C949900FC
:100020000C9499000C9430050C9499000C94990050
:100030000C9499000C9499000C9499000C949900DC
:100040000C94E6040C9499000C94B4040C948E0463
:100050000C9499000C9499000C9499000C949900BC
:100060000C9499000C94990005A84CCDB2D44EB9CB
:100070003836A9020C50B9918688083CA6AAAA2A4B
:10008000BE000000803F00000000240027002A007E
:1000900000000000250028002B00000000080002DE
:1000A000010000030407000000000000000001023E
:1000B00004081020408001020408102001020408F6
:1000C000102000000000230026002900040404047E
:1000D00004040404020202020202030303030303F2
:1000E0005F0711241FBECFEFD8E0DEBFCDBF22E0F7
:1000F000ACE2B1E001C01D92A732B207E1F711E016
:10010000A0E0B1E0E4E0FEE102C005900D92AC3267
:10011000B107D9F710E0C1E7D0E004C02197FE0194
:100120000E94F50EC037D107C9F70E940B080C9446
:10013000000F0C940000E0917A01F0917B01019096
:10014000F081E02D682F8AE791E00994CF92DF9249
:10015000EF92FF920F931F93CF93DF936C017A017D
:100160008B01C0E0D0E0CE15DF0589F0D8016D919C
:100170008D01D601ED91FC910190F081E02DC60139
:100180000995892B11F47E0102C02196ECCFC7019D
:10019000DF91CF911F910F91FF90EF90DF90CF9063
:1001A0000895FC01918D828D981761F0828DDF0199
:1001B000A80FB11D5D968C91928D9F5F9F73928F5A
:1001C00090E008958FEF9FEF0895FC01918D828D4F
:1001D000981731F0828DE80FF11D858D90E008951C
:1001E0008FEF9FEF0895FC01918D228D892F90E074
:1001F000805C9F4F821B91098F73992708958AE72E
:1002000091E00E94F30021E0892B09F420E0822F85
:100210000895FC01848DDF01A80FB11DA35ABF4FC3
:100220002C91848D90E001968F739927848FA689F5
:10023000B7892C93A089B1898C9180648C93938D1C
:10024000848D981306C00288F389E02D80818F7D0C
:1002500080830895EF92FF920F931F93CF93DF93C4
:10026000EC0181E0888F9B8D8C8D981305C0E88907
:10027000F989808185FD24C0F62E0B8D10E00F5F7B
:100280001F4F0F731127E02E8C8DE8120CC00FB694
:1002900007FCFACFE889F989808185FFF5CFCE0187
:1002A0000E940901F1CF8B8DFE01E80FF11DE35A89
:1002B000FF4FF0820B8FEA89FB898081806207C043
:1002C000EE89FF896083E889F98980818064808371
:1002D00081E090E0DF91CF911F910F91FF90EF901F
:1002E0000895CF93DF93EC01888D8823C9F0EA89C4
:1002F000FB89808185FD05C0A889B9898C9186FD1F
:100300000FC00FB607FCF5CF808185FFF2CFA8891B
:10031000B9898C9185FFEDCFCE010E940901E7CF0D
:10032000DF91CF91089580E090E0892B29F00E9421
:10033000FF0081110C940000089590E0FC01E65646
:10034000FF4F3491FC01E255FF4F2491FC01E4532F
:10035000FF4FE491EE2309F43BC0332339F13330EE
:1003600091F038F43130A9F0323001F584B58F7D49
:1003700012C0373091F03830A1F03430B9F48091A8
:1003800080008F7D03C0809180008F7780938000F4
:100390000DC084B58F7784BD09C08091B0008F7780
:1003A00003C08091B0008F7D8093B000F0E0EE0F2D
:1003B000FF1FE057FF4FA591B4918FB7F894EC91D0
:1003C000611103C020952E2301C02E2B2C938FBFCB
:1003D0000895CF93DF9390E0FC01E255FF4F249105
:1003E000FC01E453FF4F8491882361F190E0880F72
:1003F000991FFC01EA57FF4FC591D491FC01E057CA
:10040000FF4FA591B491611109C09FB7F8948881FD
:10041000209582238883EC912E230BC0623061F4F7
:100420009FB7F8943881822F809583238883EC913D
:100430002E2B2C939FBF06C08FB7F894E8812E2BEC
:1004400028838FBFDF91CF910895CF93DF93EC0185
:1004500061E08AE00E94E901209711F460E004C0A5
:10046000CF3FD10531F461E08AE0DF91CF910C9468
:100470009D01E4EAF0E0E491E330F9F048F4E13082
:10048000B9F0E230A1F584B5806284BDC8BD34C046
:10049000E730E9F0E83019F1E43049F58091800067
:1004A000806280938000D0938B00C0938A0024C028
:1004B00084B5806884BDC7BD1FC0809180008068FE
:1004C00080938000D0938900C093880015C08091EC
:1004D000B00080688093B000C093B3000DC08091DD
:1004E000B00080628093B000C093B40005C0C038F3
:1004F000D1050CF0B8CFB2CFDF91CF9108953FB7BF
:10050000F8948091470190914801A0914901B091E0
:100510004A0126B5A89B05C02F3F19F00196A11DE1
:10052000B11D3FBFBA2FA92F982F8827820F911D89
:10053000A11DB11DBC01CD0142E0660F771F881FD0
:10054000991F4A95D1F708958F929F92AF92BF92CB
:10055000CF92DF92EF92FF920E947F024B015C01EB
:100560008EE1C82ED12CE12CF12C0E947F02DC01FF
:10057000CB0188199909AA09BB09883E9340A105B6
:10058000B10558F021E0C21AD108E108F10888EE5F
:10059000880E83E0981EA11CB11CC114D104E10493
:1005A000F10419F7FF90EF90DF90CF90BF90AF90DC
:1005B0009F908F90089560E08BE00E949D0160E025
:1005C00089E00E949D0180E090E00C94250260E0AB
:1005D00089E00E949D0161E08BE00C949D0160E048
:1005E0008BE00E949D0161E089E00C949D01DC019B
:1005F000ED91FD918081ED91FD919081ED91FD91C5
:100600006C9163708E2309F064609F2309F0686029
:10061000E4E1F3E0E60FF11D659565956D936D914D
:100620007D918D919D91099423C01AC012C016C06E
:1006300010C01EC009C014C013C006C019C009C034
:100640000DC007C00DC014C0625070408040904083
:100650000BC0615070408040904006C06E5F01C08A
:100660006F5F7F4F8F4F9F4F9E938E937E936E93BE
:100670000895009769F0FC0101900020E9F7319797
:10068000AF01481B590BBC018AE791E00C94A6000E
:1006900080E090E008950C9439038F929F92AF927E
:1006A000BF920F931F93CF93DF93CDB7DEB7A19780
:1006B0000FB6F894DEBF0FBECDBF19A2423008F4CA
:1006C0004AE08E010F5D1F4F842E912CA12CB12C7E
:1006D000A50194010E94B40EE62FB901CA01015090
:1006E0001109EA3014F4E05D01C0E95CD801EC9333
:1006F000232B242B252B61F7C8010E943903A196D7
:100700000FB6F894DEBF0FBECDBFDF91CF911F9122
:100710000F91BF90AF909F908F900895CF92DF92EE
:10072000EF92FF92CF93DF9397FF19C06B017C018B
:100730008DE20E949B00EC0166277727CB016C19A4
:100740007D098E099F094AE00E944D038C0F9D1F71
:10075000DF91CF91FF90EF90DF90CF9008954AE026
:10076000DF91CF91FF90EF90DF90CF900C944D03ED
:100770004F925F926F927F928F929F92AF92BF92B1
:10078000CF92DF92EF92FF926B017C01B42E9B011E
:10079000AC010E94660E882319F082E191E027C027
:1007A00026013701E89477F82FEF3FEF4FE75FE737
:1007B000C301B2010E94660E81110DC02FEF3FEF01
:1007C0004FE75FE7C301B2010E94E40B18161CF467
:1007D00086E191E00CC02FEF3FEF4FE75FE4C701E8
:1007E000B6010E94610E181684F48AE191E0FF9030
:1007F000EF90DF90CF90BF90AF909F908F907F90C1
:100800006F905F904F900C9439032FEF3FEF4FE7BD
:100810005FECC701B6010E94E40B87FDE6CF20E044
:1008200030E0A901C701B6010E94E40B87FF09C0AF
:100830008DE20E949B004C01F7FAF094F7F8F094D7
:1008400002C0812C912CA12C60E070E080E09FE33D
:10085000AB1441F020E030E040E251E40E947A0D18
:10086000A394F6CF9B01AC01C701B6010E94090D0C
:100870002B013C010E94F30D6B017C010E94E90BEE
:100880009B01AC01C301B2010E94080D2B013C0188
:100890004AE0C701B6010E944D037C01E80CF91C37
:1008A000BB2029F08EE20E949B00E80EF91EDB2C93
:1008B000DD2021F120E030E040E251E4C301B2014B
:1008C0000E944A0C2B013C010E94F30D4B01A12C0C
:1008D000B12C4AE0C501B4010E944D03E80EF91E97
:1008E000C501B4010E94E90B9B01AC01C301B20137
:1008F0000E94080D2B013C01DA94DACFC701FF906A
:10090000EF90DF90CF90BF90AF909F908F907F90AF
:100910006F905F904F9008950E94FB0E1F920F9270
:100920000FB60F9211242F933F934F935F936F93C2
:100930007F938F939F93AF93BF93EF93FF938AE738
:1009400091E00E940901FF91EF91BF91AF919F91BA
:100950008F917F916F915F914F913F912F910F9068
:100960000FBE0F901F9018951F920F920FB60F9207
:1009700011242F938F939F93EF93FF93E0918A011C
:10098000F0918B018081E0919001F091910182FDC5
:1009900012C09081809193018F5F8F732091940199
:1009A000821751F0E0919301F0E0E658FE4F958FE9
:1009B0008093930101C08081FF91EF919F918F916E
:1009C0002F910F900FBE0F901F9018951F920F92AE
:1009D0000FB60F9211242F933F938F939F93AF9352
:1009E000BF9380916C0190916D01A0916E01B091C7
:1009F0006F013091460123E0230F2D3720F401963B
:100A0000A11DB11D05C026E8230F0296A11DB11D31
:100A10002093460180936C0190936D01A0936E0129
:100A2000B0936F018091470190914801A0914901D5
:100A3000B0914A010196A11DB11D80934701909389
:100A40004801A0934901B0934A01BF91AF919F9192
:100A50008F913F912F910F900FBE0F901F9018957F
:100A60001F920F920FB60F9211242F933F934F9323
:100A70005F936F937F938F939F93AF93BF93EF9306
:100A8000FF9380910001909101018093B2008091C9
:100A90004401909145010196909345018093440152
:100AA00080912602823030F4F8948BE192E00E942B
:100AB000F70201C0F89460912202709123028091A4
:100AC000240290912502789424E030E040E050E048
:100AD0000E94D60E2093670130936801409369010C
:100AE00050936A018091670190916801A09169011A
:100AF000B0916A01893C9105A105B1056CF0809126
:100B0000670190916801A0916901B0916A01885CC8
:100B10009109A109B10919C08091670190916801FB
:100B2000A0916901B0916A0188339F4FAF4FBF4FC9
:100B300034F58091670190916801A0916901B091AD
:100B40006A0188539F4FAF4FBF4F809367019093C7
:100B50006801A0936901B0936A0180916701909147
:100B60006801A0916901B0916A01F8948093220212
:100B700090932302A0932402B0932502789480914D
:100B8000670190916801A0916901B0916A011816FE
:100B900019061A061B064CF48091670190916801B2
:100BA000A0916901B0916A010FC080916701909195
:100BB0006801A0916901B0916A01B095A0959095E6
:100BC00081959F4FAF4FBF4F8E359105A105B10560
:100BD0000CF403C18091670190916801A0916901B3
:100BE000B0916A01181619061A061B064CF480917A
:100BF000670190916801A0916901B0916A010FC0ED
:100C00008091670190916801A0916901B0916A019A
:100C1000B095A095909581959F4FAF4FBF4F83366C
:100C20009105A105B1050CF0D8C080E690E0A0E0E8
:100C3000B0E08093400190934101A0934201B093B2
:100C400043010E94DB02609167017091680180910D
:100C5000690190916A010E94EB0B20E13EEA40E0BD
:100C60005DE30E944A0C6093760170937701809354
:100C700078019093790160914001709141018091D8
:100C80004201909143010E94EB0B20E13EEA40E0DB
:100C90005DE30E944A0C60933C0170933D01809398
:100CA0003E0190933F01809144019091450101974D
:100CB00089F480913C0190913D01A0913E01B09159
:100CC0003F018093380190933901A0933A01B0938A
:100CD0003B0194C08091440190914501449789F46F
:100CE00080913C0190913D01A0913E01B0913F0166
:100CF0008093340190933501A0933601B09337016E
:100D00007DC08091440190914501459709F076C0DE
:100D100060913401709135018091360190913701D5
:100D2000209138013091390140913A0150913B01B5
:100D30000E94080D20E030E048E452E40E944A0C92
:100D400060936301709364018093650190936601E1
:100D500060913C0170913D0180913E0190913F0175
:100D60002EEE3BEE40E450E40E94080D60935B01E0
:100D700070935C0180935D0190935E0180916301AB
:100D800090916401A0916501B09166018093570133
:100D900090935801A0935901B0935A016091530167
:100DA00070915401809155019091560120915B0101
:100DB00030915C0140915D0150915E010E94090DEE
:100DC00060935301709354018093550190935601A1
:100DD000109245011092440111C0809167019091D9
:100DE0006801A0916901B0916A01809340019093DC
:100DF0004101A0934201B093430125CFFF91EF91B0
:100E0000BF91AF919F918F917F916F915F914F9122
:100E10003F912F910F900FBE0F901F9018951F922A
:100E20000F920FB60F9211242F933F934F935F931E
:100E30006F937F938F939F93AF93BF93EF93FF93A2
:100E40008091190290911A020E94F702FF91EF918E
:100E5000BF91AF919F918F917F916F915F914F91D2
:100E60003F912F910F900FBE0F901F9018951F92DA
:100E70000F920FB60F9211242F933F934F935F93CE
:100E80006F937F938F939F93AF93BF93EF93FF9352
:100E900080911702909118020E94F702FF91EF9142
:100EA000BF91AF919F918F917F916F915F914F9182
:100EB0003F912F910F900FBE0F901F901895CF93D9
:100EC000DF9310927D0110927C0188EE93E0A0E008
:100ED000B0E080937E0190937F01A0938001B09356
:100EE000810186E091E090937B0180937A0185EC0B
:100EF00090E0909387018093860184EC90E090933A
:100F000089018093880180EC90E090938B0180931D
:100F10008A0181EC90E090938D0180938C0182ECAA
:100F200090E090938F0180938E0186EC90E09093F7
:100F3000910180939001109293011092940110926C
:100F400095011092960162E082E00E94E90162E060
:100F500083E00E94E901EEECF0E0E491F0E0EE0FB6
:100F6000FF1FEE53FF4FA591B491B0931C02A093C5
:100F70001B02E0EBF0E0849180931F02EFECF0E0C5
:100F8000E491F0E0EE0FFF1FEE53FF4FC591D491B7
:100F9000D0931E02C0931D02E1EBF0E0E491E093D8
:100FA0002002109222021092230210922402109228
:100FB0002502EBE3FFE13197F1F7EC91E82381E0C3
:100FC00009F480E0288190912002922309F0826048
:100FD0002BE132E080932102309318022093170214
:100FE000809169008C7F816080936900E89A81E03C
:100FF0008093260230931A0220931902809169008F
:10100000837F846080936900E99A82E0809326025E
:10101000DF91CF910895CF93DF93CDB7DEB72897B7
:101020000FB6F894DEBF0FBECDBF789484B5826052
:1010300084BD84B5816084BD85B5826085BD85B57C
:10104000816085BD80916E00816080936E001092FA
:101050008100809181008260809381008091810075
:101060008160809381008091800081608093800006
:101070008091B10084608093B1008091B000816064
:101080008093B00080917A00846080937A00809190
:101090007A00826080937A0080917A0081608093E8
:1010A0007A0080917A00806880937A001092C10063
:1010B000E0918A01F0918B0182E08083E0918601CA
:1010C000F09187011082E0918801F09189018FEC05
:1010D000808310929201E0918E01F0918F0186E061
:1010E0008083E0918C01F0918D018081806180830B
:1010F000E0918C01F0918D01808188608083E09186
:101100008C01F0918D01808180688083E0918C0159
:10111000F0918D0180818F7D8083F894109222025E
:10112000109223021092240210922502789480914A
:1011300070008E7F809370008091B0008C7F8093D0
:10114000B0008091B100877F8093B1008091B6009C
:101150008F7D8093B600809170008D7F80937000AA
:101160008091B10085608093B1008091B1008D7F46
:101170008093B10080910001909101018093B200B1
:101180008091700081608093700005EF10E033243F
:1011900033948FB7F89420916C0130916D01409198
:1011A0006E0150916F0129833A834B835C838FBF1B
:1011B0006091760170917701809178019091790129
:1011C00020E030E0A9010E94610E18168CF46091B5
:1011D000760170917701809178019091790120E0FA
:1011E00030E040E050E40E94610E18168CF0A8C078
:1011F00060917601709177018091780190917901E9
:1012000020E030E040E050EC0E94E40B87FF98C003
:1012100060917601709177018091780190917901C8
:1012200020E030E0A9010E94610E18168CF4609154
:1012300076017091770180917801909179012EEE7D
:101240003BEE40E850E40E94E40B87FD12C078C0FA
:101250006091760170917701809178019091790188
:101260002EEE3BEE40E850EC0E94610E18160CF09A
:1012700067C040EA50E0509375014093740160915B
:10128000760170917701809178019091790120E049
:1012900030E0A9010E94610E18168CF4609176016D
:1012A00070917701809178019091790121E23FE17D
:1012B00044E350E40E94610E18168CF057C160910F
:1012C000760170917701809178019091790121E206
:1012D0003FE144E350EC0E94E40B87FF47C160917B
:1012E000760170917701809178019091790120E0E9
:1012F00030E0A9010E94610E18168CF4609176010D
:101300007091770180917801909179012BEB38EB06
:101310004DE450E40E94E40B87FD17C027C16091A3
:1013200076017091770180917801909179012BEB92
:1013300038EB4DE450EC0E94610E181634F016C1E3
:1013400010937501009374019ACF80916B01811104
:1013500022C010925B0110925C0110925D0110920C
:101360005E0110925701109258011092590110928B
:101370005A0110925301109254011092550110928B
:10138000560110926301109264011092650110924F
:10139000660130926B0160915B0170915C018091FC
:1013A0005D0190915E01409057015090580160900E
:1013B000590170905A01C0905301D0905401E090AF
:1013C0005501F090560120E030E04AE753E40E94D6
:1013D0004A0C4B015C012DEC3CEC4CE45EE3C30198
:1013E000B2010E944A0C9B01AC01C501B4010E94EC
:1013F000090D4B015C012DEC3CEC4CE45EE3C701B4
:10140000B6010E944A0C9B01AC01C501B4010E94C7
:10141000090DDC01CB01B05880934F01909350012E
:10142000A0935101B09352018EE191E00E944B03D1
:1014300082E291E00E944B03609167017091680124
:101440008091690190916A010E948E0382E291E08D
:101450000E944B036091740170917501072E000C7E
:10146000880B990B0E948E0382E291E00E944B034D
:101470006091760170917701809178019091790166
:1014800042E00E94B80384E291E00E944B0322EB09
:101490003FEC49E252E460914F017091500180911C
:1014A0005101909152010E944A0C0E94EC0D072EAE
:1014B000000C880B990B0E94EB0B6B017C0120E068
:1014C00030E041E653E40E94610E87FD05C080E0F4
:1014D00090E0A1E6B3E417C020E030E041E653EC31
:1014E000C701B6010E94E40B18164CF4C0924B01E0
:1014F000D0924C01E0924D01F0924E010CC080E080
:1015000090E0A1E6B3EC80934B0190934C01A09343
:101510004D01B0934E0160914B0170914C0180914F
:101520004D0190914E010E94EC0D77FF0DC06D832F
:101530007E838F8398870E94E7026D817E81882752
:101540009927861B970B0CC06115710561F06D839F
:101550007E838F8398870E94EF026D817E81CB010D
:101560000E942502D8C00E94DB02D5C010926B01F8
:101570008090760190907701A0907801B0907901E9
:1015800060916701709168018091690190916A0191
:101590000E94EB0B6B017C01C501B4010E94750D2B
:1015A0004B015C012DE331E840E35CE3C701B60188
:1015B0000E944A0CA70196010E944A0C6B017C0113
:1015C00020E030E040E85FE3C501B4010E94090D6E
:1015D00021E23FE144E75FE30E944A0C9B01AC013A
:1015E000C701B6010E94090D60935F01709360010D
:1015F000809361019093620186E291E00E944B0327
:1016000082E291E00E944B03609167017091680152
:101610008091690190916A010E948E0382E291E0BB
:101620000E944B036091740170917501072E000CAC
:10163000880B990B0E948E0382E291E00E944B037B
:101640006091760170917701809178019091790194
:1016500042E00E94B80384E291E00E944B03609153
:10166000630170916401809165019091660120E0B1
:1016700030E0A9010E94E40B87FF10C020E030E0B9
:1016800040E751E460915F017091600180916101D8
:10169000909162010E94E40B87FD78C06091630124
:1016A00070916401809165019091660120E030E0C5
:1016B000A9010E94610E87FF59C06091630170917A
:1016C0006401809165019091660120E030E0A901FC
:1016D0000E94610E87FD10C020E030E040E751E439
:1016E00060915F0170916001809161019091620150
:1016F0000E94E40B87FD5DC06091630170916401FD
:10170000809165019091660120E030E0A9010E947E
:10171000E40B87FD3EC08091700190917101A09112
:101720007201B091730129813A814B815C81281B40
:10173000390B4A0B5B0B2A3031054105510598F0F6
:101740002FB7F89480916C0190916D01A0916E017A
:10175000B0916F012FBF8093700190937101A0939E
:101760007201B09373010E94930113CD20E030E029
:1017700040E751E460915F017091600180916101E7
:10178000909162010E94610E87FD97CF0E94EF0247
:1017900012C020E030E040E751E460915F017091B9
:1017A000600180916101909162010E94610E87FD4C
:1017B000B2CF0E94E70280917401909175010E945E
:1017C00025020E94A402A7CF0E94260C08F481E003
:1017D0000895E89409C097FB3EF490958095709524
:1017E00061957F4F8F4F9F4F9923A9F0F92F96E96D
:1017F000BB279395F695879577956795B795F111E2
:10180000F8CFFAF4BB0F11F460FF1BC06F5F7F4F7E
:101810008F4F9F4F16C0882311F096E911C0772390
:1018200021F09EE8872F762F05C0662371F096E899
:10183000862F70E060E02AF09A95660F771F881F68
:10184000DAF7880F9695879597F90895990F00080C
:10185000550FAA0BE0E8FEEF16161706E807F90782
:10186000C0F012161306E407F50798F0621B730B1D
:10187000840B950B39F40A2661F0232B242B252B9E
:1018800021F408950A2609F4A140A6958FEF811D41
:10189000811D08950E945D0C0C94CE0C0E94C00C1A
:1018A00038F00E94C70C20F0952311F00C94B70C6F
:1018B0000C94BD0C11240C94020D0E94DF0C70F3EB
:1018C000959FC1F3950F50E0551F629FF001729FE5
:1018D000BB27F00DB11D639FAA27F00DB11DAA1FF4
:1018E000649F6627B00DA11D661F829F2227B00D41
:1018F000A11D621F739FB00DA11D621F839FA00DCC
:10190000611D221F749F3327A00D611D231F849F1B
:10191000600D211D822F762F6A2F11249F57504072
:101920009AF0F1F088234AF0EE0FFF1FBB1F661FED
:10193000771F881F91505040A9F79E3F510580F0B6
:101940000C94B70C0C94020D5F3FE4F3983ED4F373
:10195000869577956795B795F795E7959F5FC1F75A
:10196000FE2B880F911D9695879597F9089597F905
:101970009F6780E870E060E008959FEF80EC089535
:1019800000240A941616170618060906089500245E
:101990000A9412161306140605060895092E0394D8
:1019A000000C11F4882352F0BB0F40F4BF2B11F44C
:1019B00060FF04C06F5F7F4F8F4F9F4F089557FDAB
:1019C0009058440F551F59F05F3F71F04795880FAD
:1019D00097FB991F61F09F3F79F087950895121644
:1019E00013061406551FF2CF4695F1DF08C01616F0
:1019F00017061806991FF1CF8695710561050894A1
:101A00000895E894BB2766277727CB0197F90895B7
:101A10005058BB27AA270E94200D0C94CE0C0E9480
:101A2000C00C38F00E94C70C20F039F49F3F19F425
:101A300026F40C94BD0C0EF4E095E7FB0C94B70C67
:101A4000E92F0E94DF0C58F3BA1762077307840767
:101A5000950720F079F4A6F50C94010D0EF4E095AD
:101A60000B2EBA2FA02D0B01B90190010C01CA0158
:101A7000A0011124FF27591B99F0593F50F4503E03
:101A800068F11A16F040A22F232F342F4427585FF5
:101A9000F3CF469537952795A795F0405395C9F70D
:101AA0007EF41F16BA0B620B730B840BBAF09150C5
:101AB000A1F0FF0FBB1F661F771F881FC2F70EC064
:101AC000BA0F621F731F841F48F487957795679537
:101AD000B795F7959E3F08F0B0CF9395880F08F023
:101AE0009927EE0F9795879508950E94240EE39508
:101AF0000C944D0E0E948E0D0C94CE0C0E94C70CBF
:101B000058F00E94C00C40F029F45F3F29F00C947B
:101B1000B70C51110C94020D0C94BD0C0E94DF0CFB
:101B200068F39923B1F3552391F3951B550BBB270C
:101B3000AA2762177307840738F09F5F5F4F220F51
:101B4000331F441FAA1FA9F335D00E2E3AF0E0E848
:101B500032D091505040E695001CCAF72BD0FE2F92
:101B600029D0660F771F881FBB1F26173707480726
:101B7000AB07B0E809F0BB0B802DBF01FF279358DE
:101B80005F4F3AF09E3F510578F00C94B70C0C94DF
:101B9000020D5F3FE4F3983ED4F386957795679501
:101BA000B795F7959F5FC9F7880F911D9695879513
:101BB00097F90895E1E0660F771F881FBB1F621732
:101BC00073078407BA0720F0621B730B840BBA0BF0
:101BD000EE1F88F7E09508950E94F30D6894B11107
:101BE0000C94020D08950E94E70C88F09F5798F01E
:101BF000B92F9927B751B0F0E1F0660F771F881F12
:101C0000991F1AF0BA95C9F714C0B13091F00E942B
:101C1000010DB1E008950C94010D672F782F8827EE
:101C2000B85F39F0B93FCCF3869577956795B39552
:101C3000D9F73EF490958095709561957F4F8F4FC1
:101C40009F4F08950C94BD0C0E94E70CD8F3E894C4
:101C5000E0E0BB279F57F0F02AED3FE049EC06C0DB
:101C6000EE0FBB0F661F771F881F28F0B23A62077E
:101C70007307840728F0B25A620B730B840BE39549
:101C80009A9572F7803830F49A95BB0F661F771FCC
:101C9000881FD2F790480C946D0EEF93E0FF07C0B9
:101CA000A2EA2AED3FE049EC5FEB0E94200D0E9482
:101CB000CE0C0F90039401FC9058E8E6F0E00C94F1
:101CC000790E0E94260C08F48FEF08950E94260CCE
:101CD000880B990B08959F3F31F0915020F4879520
:101CE00077956795B795880F911D9695879597F984
:101CF00008959F938F937F936F93FF93EF939B012F
:101D0000AC010E944A0CEF91FF910E948D0E2F9121
:101D10003F914F915F910C944A0CDF93CF931F93A7
:101D20000F93FF92EF92DF927B018C01689406C0C3
:101D3000DA2EEF010E945D0CFE01E894A591259139
:101D4000359145915591A6F3EF010E94200DFE01BA
:101D50009701A801DA9469F7DF90EF90FF900F9157
:101D60001F91CF91DF910895A1E21A2EAA1BBB1BF0
:101D7000FD010DC0AA1FBB1FEE1FFF1FA217B30757
:101D8000E407F50720F0A21BB30BE40BF50B661F6D
:101D9000771F881F991F1A9469F760957095809531
:101DA00090959B01AC01BD01CF010895052E97FBD5
:101DB0001EF400940E94ED0E57FD07D00E94B40E51
:101DC00007FC03D04EF40C94ED0E509540953095E1
:101DD00021953F4F4F4F5F4F089590958095709597
:101DE00061957F4F8F4F9F4F0895EE0FFF1F059016
:101DF000F491E02D099481E090E0F8940C94000FA8
:041E0000F894FFCF84
:101E04008300000000002A01A600F300D100E500D1
:101E140071016E616E00696E66006F7666007069AE
:0C1E2400640009000A007377696E670013
:00000001FF
